:020000040800F2
:1000000098B6002069020008710200087302000817
:10001000750200087702000879020008000000005D
:100020000000000000000000000000007B0200084B
:100030007D020008000000007F0200088102000825
:10004000830200088302000883020008830200087C
:10005000830200088302000883020008830200086C
:10006000830200088302000883020008830200085C
:10007000830200088302000883020008830200084C
:10008000830200088302000883020008830200083C
:10009000830200088302000883020008830200082C
:1000A000830200088302000883020008830200081C
:1000B000830200088302000883020008830200080C
:1000C00083020008830200088302000883020008FC
:1000D00083020008830200088302000883020008EC
:1000E00083020008830200088302000883020008DC
:1000F00083020008830200088302000883020008CC
:1001000083020008830200088302000883020008BB
:1001100083020008830200088302000883020008AB
:10012000830200088302000883020008830200089B
:10013000830200088302000883020008830200088B
:10014000830200088302000883020008830200087B
:10015000830200088302000883020008830200086B
:10016000830200088302000883020008830200085B
:10017000830200088302000883020008830200084B
:10018000830200088302000800F002F800F05CF827
:100190000AA090E8000C82448344AAF10107DA45E2
:1001A00001D100F051F8AFF2090EBAE80F0013F0D8
:1001B000010F18BFFB1A43F0010318474833000032
:1001C000683300000A444FF0000C10F8013B13F0B4
:1001D000070408BF10F8014B1D1108BF10F8015BA0
:1001E000641E05D010F8016B641E01F8016BF9D193
:1001F00013F0080F1EBF10F8014BAD1C0C1B09D1EA
:100200006D1E58BF01F801CBFAD505E014F8016B5B
:1002100001F8016B6D1EF9D59142D6D370470000ED
:100220000023002400250026103A28BF78C1FBD8FF
:10023000520728BF30C148BF0B6070471FB503F09D
:100240005BF91FBD10B510BD00F031F81146FFF786
:10025000F5FF02F081FB00F04FF803B4FFF7F2FF67
:1002600003BC00F053F800000948804709480047E4
:10027000FEE7FEE7FEE7FEE7FEE7FEE7FEE7FEE756
:10028000FEE7FEE704480549054A064B70470000B3
:10029000E10400088901000898B0002098B6002009
:1002A00098B2002098B2002070477047704775469A
:1002B00000F028F8AE4605006946534620F00700D6
:1002C000854618B020B5FFF7DDFFBDE820404FF0B0
:1002D00000064FF000074FF000084FF0000B21F030
:1002E0000701AC46ACE8C009ACE8C009ACE8C009FD
:1002F000ACE8C0098D4670470446AFF30080204645
:10030000FFF7ABFF0048704734B0002001491820C8
:10031000ABBEFEE7260002007047F0B50A4600219A
:100320000023002400BF3DE0012505FA01F3156814
:1003300005EA03049C4234D105684F000326BE4001
:10034000B543056015794E00B54006683543056034
:100350001579012D02D01579022D16D185684F002F
:100360000326BE40B543856055794E00B54086688A
:1003700035438560456801268E40B5434560456834
:1003800096798E40B6B235434560C5684F00032666
:10039000BE40B543C560D5794E00B540C66835430B
:1003A000C560491C1029BFD3F0BD4183704701834C
:1003B0007047000029B1064A12680243044B1A60D4
:1003C00004E0034A12688243014B1A607047000040
:1003D0003038024029B1064A12680243044B1A60C1
:1003E00004E0034A12688243014B1A607047000020
:1003F000403802400CB5002001900090344800685D
:1004000040F480303249086000BF3148006800F491
:10041000003000900198401C0190009818B9019894
:10042000B0F5A04FF1D12A48006800F4003010B1B7
:100430000120009001E0002000900098012846D1A2
:1004400023484030006840F0805021494031086026
:100450002048006840F440401E4908601C480830AD
:1004600000681B49083108600846006840F40040F5
:1004700008600846006840F4A05008601648091F4C
:100480000860081F006840F08070091F086000BF06
:100490000F48006800F000700028F9D040F20570A5
:1004A0000E4908600A480830006820F00300084937
:1004B000083108600846006840F00200086000BF8C
:1004C00003480830006800F00C000828F8D10CBD83
:1004D000003802400070004019544007003C0240C0
:1004E00010B51548006840F47000134908601348BF
:1004F000006840F001001149086000200F490831F0
:1005000008600E4800680E4908400C4908600D4814
:10051000091D0860081F006820F48020091F08607A
:10052000002006490C310860FFF764FF4FF00060BF
:1005300001498039086010BD88ED00E000380240B4
:10054000FFFFF6FE1030002400220288184B98426C
:100550000ED0184B98420BD0B0F1804F08D0164BFC
:10056000984205D0154B984202D0154B984204D1C1
:100570004FF68F731A404B881A43124B984207D09C
:10058000114B984204D04FF6FF431A400B891A438F
:1005900002804B68C3620B880385054B984202D0EA
:1005A000044B984201D18B7A0386012383827047E2
:1005B0000000014000040140000400400008004029
:1005C000000C0040001000400014004010B5052150
:1005D000FE4801F05DFD0521FD4801F059FD0521B2
:1005E000FC4801F055FD0521FB4801F051FD0521B6
:1005F000FA4801F04DFD0521F94801F049FD0521BA
:10060000F84801F045FD0521F74801F041FD0521BD
:10061000F64801F03DFD0521F54801F039FD0521C1
:10062000F44801F035FD0521F34801F031FD0521C5
:10063000F24801F02DFD0521F14801F029FD0521C9
:10064000F04801F025FD0521EF4801F021FD0521CD
:10065000EE4801F01DFD0521ED4801F019FD0521D1
:10066000EC4801F015FD0521EB4801F011FD0521D5
:10067000EA4801F00DFD0521E94801F009FD0521D9
:10068000E84801F005FD0521E74801F001FD0521DD
:10069000E64801F0FDFC0521E54801F0F9FC0521E3
:1006A000E44801F0F5FC0521E34801F0F1FC0521E7
:1006B000E24801F0EDFC0521E14801F0E9FC0521EB
:1006C000E04801F0E5FC0521DF4801F0E1FC0521EF
:1006D000DE4801F0DDFC0521DD4801F0D9FC0521F3
:1006E000DC4801F0D5FC0521DB4801F0D1FC0521F7
:1006F000DA4801F0CDFC0521D94801F0C9FC0521FB
:10070000D84801F0C5FC0521D74801F0C1FC0521FE
:10071000D64801F0BDFC0521D54801F0B9FC052102
:10072000D44801F0B5FC0521D34801F0B1FC052106
:10073000D24801F0ADFC0521D14801F0A9FC05210A
:10074000D04801F0A5FC0521CF4801F0A1FC05210E
:10075000CE4801F09DFC0521CD4801F099FC052112
:10076000CC4801F095FC0521CB4801F091FC052116
:10077000CA4801F08DFC0521C94801F089FC05211A
:10078000C84801F085FC0521C74801F081FC05211E
:10079000C64801F07DFC0521C54801F079FC052122
:1007A000C44801F075FC0521C34801F071FC052126
:1007B000C24801F06DFC0521C14801F069FC05212A
:1007C000C04801F065FC0521BF4801F061FC05212E
:1007D000BE4801F05DFC0521BD4801F059FC052132
:1007E000BC4801F055FC0521BB4801F051FC052136
:1007F000BA4801F04DFC0521B94801F049FC05213A
:10080000B84801F045FC0521B74801F041FC05213D
:10081000B64801F03DFC0521B54801F039FC052141
:10082000B44801F035FC0521B34801F031FC052145
:10083000B24801F02DFC0521B14801F029FC052149
:10084000B04801F025FC0521AF4801F021FC05214D
:10085000AE4801F01DFC0521AD4801F019FC052151
:10086000AC4801F015FC0521AB4801F011FC052155
:10087000AA4801F00DFC0521A94801F009FC052159
:10088000A84801F005FC0521A74801F001FC05215D
:10089000A64801F0FDFB0521A54801F0F9FB052163
:1008A000A44801F0F5FB0521A34801F0F1FB052167
:1008B000A24801F0EDFB0521A14801F0E9FB05216B
:1008C000A04801F0E5FB05219F4801F0E1FB05216F
:1008D0009E4801F0DDFB05219D4801F0D9FB052173
:1008E0009C4801F0D5FB05219B4801F0D1FB052177
:1008F0009A4801F0CDFB0521994801F0C9FB05217B
:10090000984801F0C5FB0521974801F0C1FB05217E
:10091000964801F0BDFB0521954801F0B9FB052182
:10092000944801F0B5FB0521934801F0B1FB052186
:10093000924801F0ADFB0521914801F0A9FB05218A
:10094000904801F0A5FB05218F4801F0A1FB05218E
:100950008E4801F09DFB05218D4801F099FB052192
:100960008C4801F095FB05218B4801F091FB052196
:100970008A4801F08DFB0521894801F089FB05219A
:10098000884801F085FB0521874801F081FB05219E
:10099000864801F07DFB0521854801F079FB0521A2
:1009A000844801F075FB0521834801F071FB0521A6
:1009B000824801F06DFB0521814801F069FB0521AA
:1009C000804801F065FB05217F48FFE0C05D002005
:1009D000805D0020405D0020005D0020C05C0020A4
:1009E000805C0020405C0020005C0020C05B002098
:1009F000805B0020405B0020005B0020C05A00208C
:100A0000805A0020405A0020005A0020C05900207F
:100A1000805900204059002000590020C058002073
:100A2000805800204058002000580020C057002067
:100A3000805700204057002000570020C05600205B
:100A4000805600204056002000560020C05500204F
:100A5000805500204055002000550020C054002043
:100A6000805400204054002000540020C053002037
:100A7000805300204053002000530020C05200202B
:100A8000805200204052002000520020C05100201F
:100A9000805100204051002000510020C050002013
:100AA000805000204050002000500020C04F002007
:100AB000804F0020404F0020004F0020C04E0020FB
:100AC000804E0020404E0020004E0020C04D0020EF
:100AD000804D0020404D0020004D0020C04C0020E3
:100AE000804C0020404C0020004C0020C04B0020D7
:100AF000804B0020404B0020004B0020C04A0020CB
:100B0000804A0020404A0020004A0020C0490020BE
:100B1000804900204049002000490020C0480020B2
:100B2000804800204048002000480020C0470020A6
:100B3000804700204047002000470020C04600209A
:100B4000804600204046002000460020C04500208E
:100B5000804500204045002000450020C044002082
:100B6000804400204044002000440020C043002076
:100B7000804300204043002000430020C04200206A
:100B8000804200204042002000420020C04100205E
:100B9000804100204041002000410020C040002052
:100BA000804000204040002000400020C03F002046
:100BB000803F0020403F0020003F0020C03E00203A
:100BC000803E0020403E0020003E002001F060FA00
:100BD0000521FE4801F05CFA0521FD4801F058FAB4
:100BE0000521FC4801F054FA0521FB4801F050FAB8
:100BF0000521FA4801F04CFA0521F94801F048FABC
:100C00000521F84801F044FA0521F74801F040FABF
:100C10000521F64801F03CFA0521F54801F038FAC3
:100C20000521F44801F034FA0521F34801F030FAC7
:100C30000521F24801F02CFA0521F14801F028FACB
:100C40000521EF4801F024FA0521EC4801F020FAD3
:100C50000521E94801F01CFA0521E64801F018FADF
:100C60000521E34801F014FA0521E04801F010FAEB
:100C70000521DD4801F00CFA0521DA4801F008FAF7
:100C80000521D74801F004FA0521D44801F000FA03
:100C90000521D14801F0FCF90521CE4801F0F8F911
:100CA0000521CB4801F0F4F90521C84801F0F0F91D
:100CB0000521D44801F0ECF90521D34801F0E8F909
:100CC0000521D24801F0E4F90521D14801F0E0F90D
:100CD0000521D04801F0DCF90521CF4801F0D8F911
:100CE0000521CE4801F0D4F90521CD4801F0D0F915
:100CF0000521CC4801F0CCF90521CB4801F0C8F919
:100D00000521CA4801F0C4F90521C94801F0C0F91C
:100D10000521C84801F0BCF90521C74801F0B8F920
:100D20000521C64801F0B4F90521C54801F0B0F924
:100D30000521C44801F0ACF90521C34801F0A8F928
:100D40000521C24801F0A4F90521C14801F0A0F92C
:100D50000521C04801F09CF90521BF4801F098F930
:100D60000521BE4801F094F90521BD4801F090F934
:100D70000521BC4801F08CF90521BB4801F088F938
:100D80000521BA4801F084F90521B94801F080F93C
:100D90000521B84801F07CF90521B74801F078F940
:100DA0000521B64801F074F90521B54801F070F944
:100DB0000521B44801F06CF90521B34801F068F948
:100DC0000521B24801F064F90521B14801F060F94C
:100DD0000521B04801F05CF90521AF4801F058F950
:100DE0000521AE4801F054F90521AD4801F050F954
:100DF0000521AC4801F04CF90521AB4801F048F958
:100E00000521AA4801F044F90521A94801F040F95B
:100E10000521A84801F03CF90521A74801F038F95F
:100E20000521A64801F034F90521A54801F030F963
:100E30000521A44801F02CF90521A34801F028F967
:100E40000521A24801F024F90521A14801F020F96B
:100E50000521A04801F01CF905219F4801F018F96F
:100E600005219E4801F014F905219D4801F010F973
:100E700005219C4801F00CF905219B4801F008F977
:100E800005219A4801F004F90521994801F000F97B
:100E90000521984801F0FCF80521974801F0F8F881
:100EA0000521964801F0F4F80521954801F0F0F885
:100EB0000521944801F0ECF80521934801F0E8F889
:100EC0000521924801F0E4F80521914801F0E0F88D
:100ED0000521904801F0DCF805218F4801F0D8F891
:100EE00005218E4801F0D4F805218D4801F0D0F895
:100EF00005218C4801F0CCF805218B4801F0C8F899
:100F000005218A4801F0C4F80521894801F0C0F89C
:100F10000521884801F0BCF80521874801F0B8F8A0
:100F20000521864801F0B4F80521854801F0B0F8A4
:100F30000521844801F0ACF80521834801F0A8F8A8
:100F40000521824801F0A4F80521814801F0A0F8AC
:100F50000521804801F09CF805217F4801F098F8B0
:100F600005217E4801F094F805217D4801F090F8B4
:100F700005217C4801F08CF805217B4801F088F8B8
:100F800005217A4801F084F80521794801F080F8BC
:100F90000521784801F07CF80521774801F078F8C0
:100FA0000521764801F074F80521754801F070F8C4
:100FB0000521744801F06CF80521734801F068F8C8
:100FC0000521724801F064F80521E1E0C03D0020F0
:100FD000803D0020403D0020003D0020C03C00201E
:100FE000803C0020403C0020003C0020C03B002012
:100FF000803B0020403B0020003B0020C03A002006
:10100000803A0020003E0020403E0020803E00202C
:10101000C03E0020003F0020403F0020803F0020D5
:10102000C03F0020004000204040002080400020C1
:10103000C0400020004100204041002080410020AD
:10104000C041002000420020404200208042002099
:10105000C042002000430020404300208043002085
:10106000C043002000440020404400208044002071
:10107000C04400200045002040450020804500205D
:10108000C045002000460020404600208046002049
:10109000C046002000470020404700208047002035
:1010A000C047002000480020404800208048002021
:1010B000C04800200049002040490020804900200D
:1010C000C0490020004A0020404A0020804A0020F9
:1010D000C04A0020004B0020404B0020804B0020E5
:1010E000C04B0020004C0020404C0020804C0020D1
:1010F000C04C0020004D0020404D0020804D0020BD
:10110000C04D0020004E0020404E0020804E0020A8
:10111000C04E0020004F0020404F0020804F002094
:10112000C04F002000500020405000208050002080
:10113000C05000200051002040510020805100206C
:10114000C051002000520020405200208052002058
:10115000C052002000530020405300208053002044
:10116000C053002000540020405400208054002030
:10117000C05400200055002040550020805500201C
:10118000C055002000560020405600208056002008
:10119000394800F07DFF0521384800F079FF05212E
:1011A000374800F075FF0521364800F071FF052132
:1011B000354800F06DFF0521344800F069FF052136
:1011C000334800F065FF0521324800F061FF05213A
:1011D000314800F05DFF0521304800F059FF05213E
:1011E0002F4800F055FF05212E4800F051FF052142
:1011F0002D4800F04DFF05212C4800F049FF052146
:101200002B4800F045FF05212A4800F041FF052149
:10121000294800F03DFF0521284800F039FF05214D
:10122000274800F035FF0521264800F031FF052151
:10123000254800F02DFF0521244800F029FF052155
:10124000234800F025FF0521224800F021FF052159
:10125000214800F01DFF0521204800F019FF05215D
:101260001F4800F015FF05211E4800F011FF052161
:101270001D4800F00DFF10BDC05600200057002093
:101280004057002080570020C05700200058002001
:101290004058002080580020C058002000590020ED
:1012A0004059002080590020C0590020005A0020D9
:1012B000405A0020805A0020C05A0020005B0020C5
:1012C000405B0020805B0020C05B0020005C0020B1
:1012D000405C0020805C0020C05C0020005D00209D
:1012E000405D0020805D0020C05D002010B505211C
:1012F000FE4800F0CDFE0521FD4800F0C9FE0521A5
:10130000FC4800F0C5FE0521FB4800F0C1FE0521A8
:10131000FA4800F0BDFE0521F94800F0B9FE0521AC
:10132000F84800F0B5FE0521F74800F0B1FE0521B0
:10133000F64800F0ADFE0521F54800F0A9FE0521B4
:10134000F44800F0A5FE0521F34800F0A1FE0521B8
:10135000F24800F09DFE0521F14800F099FE0521BC
:10136000F04800F095FE0521EF4800F091FE0521C0
:10137000EE4800F08DFE0521ED4800F089FE0521C4
:10138000EC4800F085FE0521EB4800F081FE0521C8
:10139000EA4800F07DFE0521E94800F079FE0521CC
:1013A000E84800F075FE0521E74800F071FE0521D0
:1013B000E64800F06DFE0521E54800F069FE0521D4
:1013C000E44800F065FE0521E34800F061FE0521D8
:1013D000E24800F05DFE0521E14800F059FE0521DC
:1013E000E04800F055FE0521DF4800F051FE0521E0
:1013F000DE4800F04DFE0521DD4800F049FE0521E4
:10140000DC4800F045FE0521DB4800F041FE0521E7
:10141000DA4800F03DFE0521D94800F039FE0521EB
:10142000D84800F035FE0521D74800F031FE0521EF
:10143000D64800F02DFE0521D54800F029FE0521F3
:10144000D44800F025FE0521D34800F021FE0521F7
:10145000D24800F01DFE0521D14800F019FE0521FB
:10146000D04800F015FE0521CF4800F011FE0521FF
:10147000CE4800F00DFE0521CD4800F009FE052103
:10148000CC4800F005FE0521CB4800F001FE052107
:10149000CA4800F0FDFD0521C94800F0F9FD05210D
:1014A000C84800F0F5FD0521C74800F0F1FD052111
:1014B000C64800F0EDFD0521C54800F0E9FD052115
:1014C000C44800F0E5FD0521C34800F0E1FD052119
:1014D000C24800F0DDFD0521C14800F0D9FD05211D
:1014E000C04800F0D5FD0521BF4800F0D1FD052121
:1014F000BE4800F0CDFD0521BD4800F0C9FD052125
:10150000BC4800F0C5FD0521BB4800F0C1FD052128
:10151000BA4800F0BDFD0521B94800F0B9FD05212C
:10152000B84800F0B5FD0521B74800F0B1FD052130
:10153000B64800F0ADFD0521B54800F0A9FD052134
:10154000B44800F0A5FD0521B34800F0A1FD052138
:10155000B24800F09DFD0521B14800F099FD05213C
:10156000B04800F095FD0521AF4800F091FD052140
:10157000AE4800F08DFD0521AD4800F089FD052144
:10158000AC4800F085FD0521AB4800F081FD052148
:10159000AA4800F07DFD0521A94800F079FD05214C
:1015A000A84800F075FD0521A74800F071FD052150
:1015B000A64800F06DFD0521A54800F069FD052154
:1015C000A44800F065FD0521A34800F061FD052158
:1015D000A24800F05DFD0521A14800F059FD05215C
:1015E000A04800F055FD05219F4800F051FD052160
:1015F0009E4800F04DFD05219D4800F049FD052164
:101600009C4800F045FD05219B4800F041FD052167
:101610009A4800F03DFD0521994800F039FD05216B
:10162000984800F035FD0521974800F031FD05216F
:10163000964800F02DFD0521954800F029FD052173
:10164000944800F025FD0521934800F021FD052177
:10165000924800F01DFD0521914800F019FD05217B
:10166000904800F015FD05218F4800F011FD05217F
:101670008E4800F00DFD05218D4800F009FD052183
:101680008C4800F005FD05218B4800F001FD052187
:101690008A4800F0FDFC0521894800F0F9FC05218D
:1016A000884800F0F5FC0521874800F0F1FC052191
:1016B000864800F0EDFC0521854800F0E9FC052195
:1016C000844800F0E5FC0521834800F0E1FC052199
:1016D000824800F0DDFC0521814800F0D9FC05219D
:1016E000804800F0D5FC05217F48FFE0005E002027
:1016F000405E0020805E0020C05E0020005F002071
:10170000405F0020805F0020C05F0020006000205C
:101710004060002080600020C06000200061002048
:101720004061002080610020C06100200062002034
:101730004062002080620020C06200200063002020
:101740004063002080630020C0630020006400200C
:101750004064002080640020C064002000650020F8
:101760004065002080650020C065002000660020E4
:101770004066002080660020C066002000670020D0
:101780004067002080670020C067002000680020BC
:101790004068002080680020C068002000690020A8
:1017A0004069002080690020C0690020006A002094
:1017B000406A0020806A0020C06A0020006B002080
:1017C000406B0020806B0020C06B0020006C00206C
:1017D000406C0020806C0020C06C0020006D002058
:1017E000406D0020806D0020C06D0020006E002044
:1017F000406E0020806E0020C06E0020006F002030
:10180000406F0020806F0020C06F0020007000201B
:101810004070002080700020C07000200071002007
:101820004071002080710020C071002000720020F3
:101830004072002080720020C072002000730020DF
:101840004073002080730020C073002000740020CB
:101850004074002080740020C074002000750020B7
:101860004075002080750020C075002000760020A3
:101870004076002080760020C0760020007700208F
:101880004077002080770020C0770020007800207B
:101890004078002080780020C07800200079002067
:1018A0004079002080790020C0790020007A002053
:1018B000407A0020807A0020C07A0020007B00203F
:1018C000407B0020807B0020C07B0020007C00202B
:1018D000407C0020807C0020C07C0020007D002017
:1018E000407D0020807D0020C07D002000F0D0FBE6
:1018F0000521FE4800F0CCFB0521FD4800F0C8FBA7
:101900000521FC4800F0C4FB0521FB4800F0C0FBAA
:101910000521FA4800F0BCFB0521F94800F0B8FBAE
:101920000521F84800F0B4FB3221F74800F0B0FB85
:101930000521F44800F0ACFB0521F14800F0A8FBBC
:101940000521EE4800F0A4FB0521EB4800F0A0FBC8
:101950000521E84800F09CFB0521E54800F098FBD4
:101960000521E24800F094FB0521E84800F090FBD7
:101970000521E74800F08CFB0521E64800F088FBD4
:101980000521E54800F084FB0521E44800F080FBD8
:101990000521E34800F07CFB0521E24800F078FBDC
:1019A0000521E14800F074FB0521E04800F070FBE0
:1019B0000521DF4800F06CFB0521DE4800F068FBE4
:1019C0000521DD4800F064FB0521DC4800F060FBE8
:1019D0000521DB4800F05CFB0521DA4800F058FBEC
:1019E0000521D94800F054FB0521D84800F050FBF0
:1019F0000521D74800F04CFB0521D64800F048FBF4
:101A00000521D54800F044FB0521D44800F040FBF7
:101A10000521D34800F03CFB0521D24800F038FBFB
:101A20000521D14800F034FB0521D04800F030FBFF
:101A30000521CF4800F02CFB0521CE4800F028FB03
:101A40000521CD4800F024FB0521CC4800F020FB07
:101A50000521CB4800F01CFB0521CA4800F018FB0B
:101A60000521C94800F014FB0521C84800F010FB0F
:101A70000521C74800F00CFB0521C64800F008FB13
:101A80000521C54800F004FB0521C44800F000FB17
:101A90000521C34800F0FCFA0521C24800F0F8FA1D
:101AA0000521C14800F0F4FA0521C04800F0F0FA21
:101AB0000521BF4800F0ECFA0521BE4800F0E8FA25
:101AC0000521BD4800F0E4FA0521BC4800F0E0FA29
:101AD0000521BB4800F0DCFA0521BA4800F0D8FA2D
:101AE0000521B94800F0D4FA0521B84800F0D0FA31
:101AF0000521B74800F0CCFA0521B64800F0C8FA35
:101B00000521B54800F0C4FA0521B44800F0C0FA38
:101B10000521B34800F0BCFA0521B24800F0B8FA3C
:101B20000521B14800F0B4FA0521B04800F0B0FA40
:101B30000521AF4800F0ACFA0521AE4800F0A8FA44
:101B40000521AD4800F0A4FA0521AC4800F0A0FA48
:101B50000521AB4800F09CFA0521AA4800F098FA4C
:101B60000521A94800F094FA0521A84800F090FA50
:101B70000521A74800F08CFA0521A64800F088FA54
:101B80000521A54800F084FA0521A44800F080FA58
:101B90000521A34800F07CFA0521A24800F078FA5C
:101BA0000521A14800F074FA0521A04800F070FA60
:101BB00005219F4800F06CFA05219E4800F068FA64
:101BC00005219D4800F064FA05219C4800F060FA68
:101BD00005219B4800F05CFA05219A4800F058FA6C
:101BE0000521994800F054FA0521984800F050FA70
:101BF0000521974800F04CFA0521964800F048FA74
:101C00000521954800F044FA0521944800F040FA77
:101C10000521934800F03CFA0521924800F038FA7B
:101C20000521914800F034FA0521904800F030FA7F
:101C300005218F4800F02CFA05218E4800F028FA83
:101C400005218D4800F024FA05218C4800F020FA87
:101C500005218B4800F01CFA05218A4800F018FA8B
:101C60000521894800F014FA0521884800F010FA8F
:101C70000521874800F00CFA0521864800F008FA93
:101C80000521854800F004FA0521844800F000FA97
:101C90000521834800F0FCF90521824800F0F8F99D
:101CA0000521814800F0F4F90521804800F0F0F9A1
:101CB00005217F4800F0ECF905217E4800F0E8F9A5
:101CC00005217D4800F0E4F905217C4800F0E0F9A9
:101CD00005217B4800F0DCF905217A4800F0D8F9AD
:101CE0000521794800F0D4F90521EFE0007E0020BD
:101CF000407E0020807E0020C07E0020007F0020EB
:101D0000407F0020807F0020C07F0020C07D002019
:101D1000807D0020407D0020007D0020C07C0020D0
:101D2000807C0020407C0020007C0020C07B0020C4
:101D3000807B0020407B0020007B0020C07A0020B8
:101D4000807A0020407A0020007A0020C0790020AC
:101D5000807900204079002000790020C0780020A0
:101D6000807800204078002000780020C077002094
:101D7000807700204077002000770020C076002088
:101D8000807600204076002000760020C07500207C
:101D9000807500204075002000750020C074002070
:101DA000807400204074002000740020C073002064
:101DB000807300204073002000730020C072002058
:101DC000807200204072002000720020C07100204C
:101DD000807100204071002000710020C070002040
:101DE000807000204070002000700020C06F002034
:101DF000806F0020406F0020006F0020C06E002028
:101E0000806E0020406E0020006E0020C06D00201B
:101E1000806D0020406D0020006D0020C06C00200F
:101E2000806C0020406C0020006C0020C06B002003
:101E3000806B0020406B0020006B0020C06A0020F7
:101E4000806A0020406A0020006A0020C0690020EB
:101E5000806900204069002000690020C0680020DF
:101E6000806800204068002000680020C0670020D3
:101E7000806700204067002000670020C0660020C7
:101E8000806600204066002000660020C0650020BB
:101E9000806500204065002000650020C0640020AF
:101EA000806400204064002000640020C0630020A3
:101EB000806300204063002000630020C062002097
:101EC0008062002040620020006200201F4800F075
:101ED000DFF805211E4800F0DBF805211D4800F061
:101EE000D7F805211C4800F0D3F805211B4800F065
:101EF000CFF805211A4800F0CBF80521194800F069
:101F0000C7F80521184800F0C3F80521174800F06C
:101F1000BFF80521164800F0BBF80521154800F070
:101F2000B7F80521144800F0B3F80521134800F074
:101F3000AFF80521124800F0ABF80521114800F078
:101F4000A7F80521104800F0A3F810BDC0610020DB
:101F5000806100204061002000610020C0600020FE
:101F6000806000204060002000600020C05F0020F2
:101F7000805F0020405F0020005F0020C05E0020E6
:101F8000805E0020405E0020005E00200EB5012132
:101F90000420FEF71FFA532001900020ADF8000046
:101FA000ADF80800ADF8020069460248FEF7CCFA29
:101FB0000EBD00000008004010B54FF4FA73B0FBEE
:101FC000F3F2B0FBF3F403FB140120E0234B1B6896
:101FD000DB084FF47A74B3FBF4F3641063434FF0FF
:101FE000E024636123461B6943F00103236100BFC2
:101FF0004FF0E0231B6903F48033002BF8D04FF03F
:10200000E0231B6923F001034FF0E0242361130058
:10201000A2F10102DAD1F9B1104B1B68DB084FF4D1
:102020007A74B3FBF4F34B434FF0E024636123462F
:102030001B6943F00103236100BF4FF0E0231B69DC
:1020400003F48033002BF8D04FF0E0231B6923F01A
:1020500001034FF0E024236110BD000020B00020F8
:1020600015E000F0CFFB00F0CDFB00F0CBFBFEF75E
:10207000ADFA4FF47A70FFF79FFFFFF737F94FF48F
:102080007A70FFF799FF00F011FD00F02BF8E8E7F8
:102090002DE9F04106460F46C7EBC70000F0FF08E8
:1020A00016E0002412E0204600F08CFC002509E038
:1020B000284600F0A9FC06EBC401485D00F054FC82
:1020C000681CC5B2082DF3DB601CC4B2082CEADB27
:1020D0005FEA0800A8F1010101F0FF08E1D1BDE8C5
:1020E000F081000010B50521FE48FFF7D1FF052162
:1020F000FD48FFF7CDFF0521FC48FFF7C9FF05218B
:10210000FB48FFF7C5FF0521FA48FFF7C1FF05218E
:10211000F948FFF7BDFF0521F848FFF7B9FF052192
:10212000F748FFF7B5FF0521F648FFF7B1FF052196
:10213000F548FFF7ADFF0521F448FFF7A9FF05219A
:10214000F348FFF7A5FF0521F248FFF7A1FF05219E
:10215000F148FFF79DFF0521F048FFF799FF0521A2
:10216000ED48FFF795FF0521EA48FFF791FF0521AC
:10217000E748FFF78DFF0521E448FFF789FF0521B8
:10218000E148FFF785FF0521DE48FFF781FF0521C4
:10219000DB48FFF77DFF0521DA48FFF779FF0521CE
:1021A000D948FFF775FF0521D848FFF771FF0521D2
:1021B000D748FFF76DFF0521D648FFF769FF0521D6
:1021C000D548FFF765FF0521D448FFF761FF0521DA
:1021D000D148FFF75DFF0521CE48FFF759FF0521E4
:1021E000CB48FFF755FF0521C848FFF751FF0521F0
:1021F000C548FFF74DFF0521C248FFF749FF0521FC
:10220000BF48FFF745FF0521C548FFF741FF0521FE
:10221000C448FFF73DFF0521C348FFF739FF0521FB
:10222000C248FFF735FF0521C148FFF731FF0521FF
:10223000C048FFF72DFF0521BF48FFF729FF052103
:10224000BE48FFF725FF0521BD48FFF721FF052107
:10225000BC48FFF71DFF0521BB48FFF719FF05210B
:10226000BA48FFF715FF0521B948FFF711FF05210F
:10227000B848FFF70DFF0521B748FFF709FF052113
:10228000B648FFF705FF0521B548FFF701FF052117
:10229000B448FFF7FDFE0521B348FFF7F9FE05211D
:1022A000B248FFF7F5FE0521B148FFF7F1FE052121
:1022B000AE48FFF7EDFE0521AB48FFF7E9FE05212B
:1022C000A848FFF7E5FE0521A548FFF7E1FE052137
:1022D000A248FFF7DDFE05219F48FFF7D9FE052143
:1022E0009C48FFF7D5FE05219B48FFF7D1FE05214D
:1022F0009A48FFF7CDFE05219948FFF7C9FE052151
:102300009848FFF7C5FE05219748FFF7C1FE052154
:102310009648FFF7BDFE05219548FFF7B9FE052158
:102320009248FFF7B5FE05218F48FFF7B1FE052162
:102330008C48FFF7ADFE05218948FFF7A9FE05216E
:102340008648FFF7A5FE05218348FFF7A1FE05217A
:102350008048FFF79DFE05218648FFF799FE05217D
:102360008548FFF795FE05218448FFF791FE05217A
:102370008348FFF78DFE05218248FFF789FE05217E
:102380008148FFF785FE05218048FFF781FE052182
:102390007F48FFF77DFE05217E48FFF779FE052186
:1023A0007D48FFF775FE05217C48FFF771FE05218A
:1023B0007B48FFF76DFE05217A48FFF769FE05218E
:1023C0007948FFF765FE05217848FFF761FE052192
:1023D0007748FFF75DFE05217648FFF759FE052196
:1023E0007548FFF755FE05217448FFF751FE05219A
:1023F0007348FFF74DFE05217248FFF749FE05219E
:102400007148FFF745FE05217048FFF741FE0521A1
:102410006F48FFF73DFE05216E48FFF739FE0521A5
:102420006D48FFF735FE05216C48FFF731FE0521A9
:102430006948FFF72DFE05216648FFF729FE0521B3
:102440006348FFF725FE05216048FFF721FE0521BF
:102450005D48FFF71DFE05215A48FFF719FE0521CB
:102460005748FFF715FE05215448FFF711FE0521D7
:102470005148FFF70DFE05214E48FFF709FE0521E3
:102480004B48FFF705FE05214848FFF701FE0521EF
:102490004548FFF7FDFD05214448FFF7F9FD0521FB
:1024A0004348FFF7F5FD05214248FFF7F1FD0521FF
:1024B0004148FFF7EDFD05214048FFF7E9FD052103
:1024C0003F48FFF7E5FD05213E48FFF7E1FD052107
:1024D0003D48FFF7DDFD05213C48FFF7D9FD05210B
:1024E0003B487DE00080002040800020808000206C
:1024F000C0800020008100204081002080810020D9
:10250000C0810020008200204082002080820020C4
:10251000C0820020008300204083002080830020B0
:10252000C08300200084002040840020808400209C
:10253000C084002000850020408500208085002088
:10254000C085002000860020408600208086002074
:10255000C086002000870020408700208087002060
:10256000C08700200088002040880020808800204C
:10257000C088002000890020408900208089002038
:10258000C0890020008A0020408A0020808A002024
:10259000C08A0020008B0020408B0020808B002010
:1025A000C08B0020008C0020408C0020808C0020FC
:1025B000C08C0020008D0020408D0020808D0020E8
:1025C000C08D0020008E0020408E0020808E0020D4
:1025D000C08E0020008F0020408F0020808F0020C0
:1025E000FFF756FD05216448FFF752FD05216348BA
:1025F000FFF74EFD05216248FFF74AFD05215F48C0
:10260000FFF746FD05215C48FFF742FD05215D48C7
:10261000FFF73EFD05215C48FFF73AFD05215B48C9
:10262000FFF736FD05215A48FFF732FD05215948CD
:10263000FFF72EFD05215848FFF72AFD05215748D1
:10264000FFF726FD05215648FFF722FD05215548D5
:10265000FFF71EFD05215448FFF71AFD05215348D9
:10266000FFF716FD05215248FFF712FD05215148DD
:10267000FFF70EFD05215048FFF70AFD05214F48E1
:10268000FFF706FD05214E48FFF702FD05214D48E5
:10269000FFF7FEFC05214C48FFF7FAFC05214B48EB
:1026A000FFF7F6FC05214A48FFF7F2FC05214948EF
:1026B000FFF7EEFC05214848FFF7EAFC05214748F3
:1026C000FFF7E6FC05214648FFF7E2FC05214348F9
:1026D000FFF7DEFC05214048FFF7DAFC05213D4805
:1026E000FFF7D6FC05213F48FFF7D2FC052138480B
:1026F000FFF7CEFC05213548FFF7CAFC052132481B
:10270000FFF7C6FC05213148FFF7C2FC0521304820
:10271000FFF7BEFC05212F48FFF7BAFC05212E4824
:10272000FFF7B6FC05212D48FFF7B2FC05212C4828
:10273000FFF7AEFC05212C48FFF7AAFC05212B482A
:10274000FFF7A6FC05212A48FFF7A2FC052129482E
:10275000FFF79EFC05212848FFF79AFC0521274832
:10276000FFF796FC05212648FFF792FC05211D483E
:10277000FFF78EFC10BD0000008F0020408F00206E
:10278000808F0020C08E0020808E0020408E002090
:10279000008E0020C08D0020808D0020408D002004
:1027A000008D0020C08C0020808C0020408C0020F8
:1027B000C08F0020009000204090002080900020DA
:1027C000C0900020009100204091002080910020C6
:1027D000C09100204092002080920020C0920020F2
:1027E000009300200092002040930020809300205E
:1027F000C09300200094002040940020809400208A
:10280000C094002010B505211D48FFF741FC0521AB
:102810001C48FFF73DFC05211B48FFF739FC05214B
:102820001A48FFF735FC05211948FFF731FC05214F
:102830001848FFF72DFC05211748FFF729FC052153
:102840001648FFF725FC05211548FFF721FC052157
:102850001448FFF71DFC05211348FFF719FC05215B
:102860001248FFF715FC05211148FFF711FC05215F
:102870001048FFF70DFC05210F48FFF709FC10BDBC
:10288000C03600200037002040370020803700206D
:10289000C037002000380020403800208038002059
:1028A000C038002000390020403900208039002045
:1028B000C0390020003A0020403A00201CB5012118
:1028C0000D20FDF777FD4FF4FF70009001208DF88B
:1028D000040000208DF8060003208DF8050001207B
:1028E0008DF8070069461948FDF717FDFF20009095
:1028F00001208DF8040000208DF8060003208DF8DB
:10290000050001208DF8070069461148FDF705FD17
:10291000FF20009001208DF8040000208DF80600B3
:1029200003208DF8050001208DF80700694609484D
:10293000FDF7F3FCFFF72AFBFF2000F02BF8FF2048
:1029400000F04CF8002000F00FF81CBD0000024021
:1029500000080240000C0240FFF7B0FF4FF4FA708D
:10296000FFF72AFBFFF77CFB70B50546002409E062
:102970000120A04000EA05020448015D044800F07F
:102980004FF8641C082CF3DB70BD000008B0002079
:102990000000024070B5054600240BE00120A04075
:1029A00000EA0502C4F10700044B195C044800F07A
:1029B00037F8641C082CF1DB70BD000010B000205B
:1029C0000008024010B50446072C00DD10BD0121AF
:1029D000A140C8B2FFF7DEFF00BFF7E770B50546BC
:1029E000002409E00120A04000EA05020448015D3E
:1029F000044800F015F8641C082CF3DB70BD0000DF
:102A000018B00020000C024010B50446072C00DD71
:102A100010BD0121A140C8B2FFF7E0FF00BFF7E7FA
:102A20002DE9F04107460D461646102D31D2DFE85C
:102A300005F0080A0C0E10121416181B1E2124276C
:102A40002A2D012425E0022423E0042421E0082487
:102A50001FE010241DE020241BE0402419E0802406
:102A600017E04FF4807414E04FF4007411E04FF459
:102A700080640EE04FF400640BE04FF4805408E0F3
:102A80004FF4005405E04FF4804402E04FF400445A
:102A900000BF00BF26B121463846FDF788FC03E0A1
:102AA00021463846FDF781FCBDE8F08110B50521CF
:102AB000FE48FFF7EDFA0521FD48FFF7E9FA052189
:102AC000FC48FFF7E5FA0521FB48FFF7E1FA05218D
:102AD000FA48FFF7DDFA0521F948FFF7D9FA052191
:102AE000F848FFF7D5FA3221F748FFF7D1FA052168
:102AF000F648FFF7CDFA0521F548FFF7C9FA052199
:102B0000F448FFF7C5FA0521F348FFF7C1FA05219C
:102B1000F248FFF7BDFA0521F148FFF7B9FA322173
:102B2000F048FFF7B5FA0521EF48FFF7B1FA0521A4
:102B3000EE48FFF7ADFA0521ED48FFF7A9FA0521A8
:102B4000EC48FFF7A5FA0521EB48FFF7A1FA0521AC
:102B5000EA48FFF79DFA0521E948FFF799FA322183
:102B6000E848FFF795FA0521E748FFF791FA0521B4
:102B7000E648FFF78DFA0521E548FFF789FA0521B8
:102B8000E448FFF785FA0521E348FFF781FA0521BC
:102B9000E248FFF77DFA0521E148FFF779FA0521C0
:102BA000E048FFF775FA0521DF48FFF771FA0521C4
:102BB000DE48FFF76DFA0521DD48FFF769FA0521C8
:102BC000DC48FFF765FA0521DB48FFF761FA0521CC
:102BD000DA48FFF75DFA0521D948FFF759FA0521D0
:102BE000D848FFF755FA0521D748FFF751FA0521D4
:102BF000D648FFF74DFA0521D548FFF749FA0521D8
:102C0000D448FFF745FA0521D348FFF741FA0521DB
:102C1000D248FFF73DFA0521D148FFF739FA0521DF
:102C2000D048FFF735FA0521CF48FFF731FA0521E3
:102C3000CE48FFF72DFA0521CD48FFF729FA0521E7
:102C4000CC48FFF725FA0521CB48FFF721FA0521EB
:102C5000CA48FFF71DFA0521C948FFF719FA0521EF
:102C6000C848FFF715FA0521C748FFF711FA0521F3
:102C7000C648FFF70DFA0521C548FFF709FA0521F7
:102C8000C448FFF705FA0521C348FFF701FA0521FB
:102C9000C248FFF7FDF90521C148FFF7F9F9052101
:102CA000C048FFF7F5F90521BF48FFF7F1F9052105
:102CB000BE48FFF7EDF90521BD48FFF7E9F9052109
:102CC000BC48FFF7E5F90521BB48FFF7E1F905210D
:102CD000BA48FFF7DDF90521B948FFF7D9F9052111
:102CE000B848FFF7D5F90521B748FFF7D1F9052115
:102CF000B648FFF7CDF90521B548FFF7C9F9052119
:102D0000B448FFF7C5F90521B348FFF7C1F905211C
:102D1000B248FFF7BDF90521B148FFF7B9F9052120
:102D2000B048FFF7B5F90521AF48FFF7B1F9052124
:102D3000AE48FFF7ADF90521AD48FFF7A9F9052128
:102D4000AC48FFF7A5F90521AB48FFF7A1F905212C
:102D5000AA48FFF79DF90521A948FFF799F9052130
:102D6000A848FFF795F90521A748FFF791F9052134
:102D7000A648FFF78DF90521A548FFF789F9052138
:102D8000A448FFF785F90521A348FFF781F905213C
:102D9000A248FFF77DF90521A148FFF779F9052140
:102DA000A048FFF775F905219F48FFF771F9052144
:102DB0009E48FFF76DF905219D48FFF769F9052148
:102DC0009C48FFF765F905219B48FFF761F905214C
:102DD0009A48FFF75DF905219948FFF759F9052150
:102DE0009848FFF755F905219748FFF751F9052154
:102DF0009648FFF74DF905219548FFF749F9052158
:102E00009448FFF745F905219348FFF741F905215B
:102E10009248FFF73DF905219148FFF739F905215F
:102E20009048FFF735F905218F48FFF731F9052163
:102E30008E48FFF72DF905218D48FFF729F9052167
:102E40008C48FFF725F905218B48FFF721F905216B
:102E50008A48FFF71DF905218948FFF719F905216F
:102E60008848FFF715F905218748FFF711F9052173
:102E70008648FFF70DF905218548FFF709F9052177
:102E80008448FFF705F905218348FFF701F905217B
:102E90008248FFF7FDF805218148FFF7F9F8052181
:102EA0008048FFF7F5F805217F48FFE0000000208B
:102EB0004000002080000020C00000200001002011
:102EC0004001002080010020C001002000020020FD
:102ED0004002002080020020C002002000030020E9
:102EE0004003002080030020C003002000040020D5
:102EF0004004002080040020C004002000050020C1
:102F00004005002080050020C005002000060020AC
:102F10004006002080060020C00600200007002098
:102F20004007002080070020C00700200008002084
:102F30004008002080080020C00800200009002070
:102F40004009002080090020C0090020000A00205C
:102F5000400A0020800A0020C00A0020000B002048
:102F6000400B0020800B0020C00B0020000C002034
:102F7000400C0020800C0020C00C0020000D002020
:102F8000400D0020800D0020C00D0020000E00200C
:102F9000400E0020800E0020C00E0020000F0020F8
:102FA000400F0020800F0020C00F002000100020E4
:102FB0004010002080100020C010002000110020D0
:102FC0004011002080110020C011002000120020BC
:102FD0004012002080120020C012002000130020A8
:102FE0004013002080130020C01300200014002094
:102FF0004014002080140020C01400200015002080
:103000004015002080150020C0150020001600206B
:103010004016002080160020C01600200017002057
:103020004017002080170020C01700200018002043
:103030004018002080180020C0180020001900202F
:103040004019002080190020C0190020001A00201B
:10305000401A0020801A0020C01A0020001B002007
:10306000401B0020801B0020C01B0020001C0020F3
:10307000401C0020801C0020C01C0020001D0020DF
:10308000401D0020801D0020C01D0020001E0020CB
:10309000401E0020801E0020C01E0020001F0020B7
:1030A000401F0020801F0020C01F0020FEF7F0FFFF
:1030B0000521B648FEF7ECFF0521B548FEF7E8FF0D
:1030C0000521B448FEF7E4FF0521B348FEF7E0FF11
:1030D0000521B248FEF7DCFF0521B148FEF7D8FF15
:1030E0000521B048FEF7D4FF0521AF48FEF7D0FF19
:1030F0000521AE48FEF7CCFF0521AD48FEF7C8FF1D
:103100000521AC48FEF7C4FF0521AB48FEF7C0FF20
:103110000521AA48FEF7BCFF0521A948FEF7B8FF24
:103120000521A848FEF7B4FF0521A748FEF7B0FF28
:103130000521A648FEF7ACFF0521A548FEF7A8FF2C
:103140000521A448FEF7A4FF0521A348FEF7A0FF30
:103150000521A248FEF79CFF0521A148FEF798FF34
:103160000521A048FEF794FF05219F48FEF790FF38
:1031700005219E48FEF78CFF05219D48FEF788FF3C
:1031800005219C48FEF784FF05219B48FEF780FF40
:1031900005219A48FEF77CFF05219948FEF778FF44
:1031A00005219848FEF774FF05219748FEF770FF48
:1031B00005219648FEF76CFF05219548FEF768FF4C
:1031C00005219448FEF764FF05219348FEF760FF50
:1031D00005219248FEF75CFF05219148FEF758FF54
:1031E00005219048FEF754FF05218F48FEF750FF58
:1031F00005218E48FEF74CFF05218D48FEF748FF5C
:1032000005218C48FEF744FF05218B48FEF740FF5F
:1032100005218A48FEF73CFF05218948FEF738FF63
:1032200005218848FEF734FF05218748FEF730FF67
:1032300005218648FEF72CFF05218548FEF728FF6B
:1032400005218448FEF724FF05218348FEF720FF6F
:1032500005218248FEF71CFF05218148FEF718FF73
:1032600005218048FEF714FF05217F48FEF710FF77
:1032700005217E48FEF70CFF05217D48FEF708FF7B
:1032800005217C48FEF704FF05217B48FEF700FF7F
:1032900005217A48FEF7FCFE05217948FEF7F8FE85
:1032A00005217848FEF7F4FE05217748FEF7F0FE89
:1032B00005217648FEF7ECFE05217548FEF7E8FE8D
:1032C00005217448FEF7E4FE05217348FEF7E0FE91
:1032D00005217248FEF7DCFE05217148FEF7D8FE95
:1032E00005217048FEF7D4FE05216F48FEF7D0FE99
:1032F00005216E48FEF7CCFE05216D48FEF7C8FE9D
:1033000005216C48FEF7C4FE05216B48FEF7C0FEA0
:1033100005216A48FEF7BCFE05216948FEF7B8FEA4
:1033200005216848FEF7B4FE05216748FEF7B0FEA8
:1033300005216648FEF7ACFE05216548FEF7A8FEAC
:1033400005216448FEF7A4FE4FF496716248FEF72B
:103350009FFE05216148FEF79BFE05216048FEF7B0
:1033600097FE05215F48FEF793FE05215E48FEF7B4
:103370008FFE05215D48FEF78BFE05215C48FEF7B8
:1033800087FE05215B48FEF783FE10BD002000206C
:103390004020002080200020C020002000210020AC
:1033A0004021002080210020C02100200022002098
:1033B0004022002080220020C02200200023002084
:1033C0004023002080230020C02300200024002070
:1033D0004024002080240020C0240020002500205C
:1033E0004025002080250020C02500200026002048
:1033F0004026002080260020C02600200027002034
:103400004027002080270020C0270020002800201F
:103410004028002080280020C0280020002900200B
:103420004029002080290020C0290020002A0020F7
:10343000402A0020802A0020C02A0020002B0020E3
:10344000402B0020802B0020C02B0020002C0020CF
:10345000402C0020802C0020C02C0020002D0020BB
:10346000402D0020802D0020C02D0020002E0020A7
:10347000402E0020802E0020C02E0020002F002093
:10348000402F0020802F0020C02F0020003000207F
:103490004030002080300020C0300020003100206B
:1034A0004031002080310020C03100200032002057
:1034B0004032002080320020C03200200033002043
:1034C0004033002080330020C0330020003400202F
:1034D0004034002080340020C0340020003500201B
:1034E0004035002080350020C03500200036002007
:1034F00040360020803600204FF04070E1EE100A88
:1035000070470000243500080000002034B000009F
:10351000C40100085443000834B0002064060000D1
:1035200020020008023FFF6940093648E940092EA1
:1035300048091640092648091E40091E4809264028
:10354000091648092E40E948093640790859090901
:103550003708594A0938084909093908093F04094F
:103560003F850939FE4908110A3DFF08093E4869AF
:1035700040093648E940092E4809164009264809FD
:103580001E40091E48092640091648092E40E948F0
:103590000936400930080A3E02484941093988394C
:1035A00041093AC82941093A402941093B4019419A
:1035B000093C40110A3702400A3D044011394109D3
:1035C00039403941093A402941093B401941093CF8
:1035D00040110A3D0440110A3706400A3D104011CF
:1035E00039410939403941093A402941093B4019DB
:1035F00041093C40110A3D1040110A3716400A3D6E
:1036000020401139410939403941093A40294109DD
:103610003B401941093C40110A3D2040110A2F3618
:10362000380A3D01401149410938404941093940B2
:103630003941093A402941093B401941093940299A
:10364000BF0A3701404A02810938803941093940AF
:103650003941093A402941093B401941093C40118F
:103660000A3D0240110A3703400A3D044011394126
:103670000939403941093A402941093B401941097A
:103680003C40110A3D0440110A3707400A3D0840FA
:103690001139410939403941093A402941093B4032
:1036A0001941093C40110A3D0840110A370F400AF0
:1036B0003D10401139410939403941093A40294109
:1036C000093B401941093C40110A3D1040110A379D
:1036D0001F400A3D20401139410939403941093A1A
:1036E000402941093B401941093C40110A3D204015
:1036F000110A373F400A3D404011394109394039EC
:1037000041093A402941093B401941093C40110A0D
:103710003D4040110A2F7F400A3D014011494109B7
:10372000384049410939403941093A402941093B6A
:10373000401941093C40110A3701400A3D0240113D
:1037400039410939403941093A402941093B401979
:1037500041093C40110A3D0240110A3703400A3D2D
:1037600004401139410939403941093A4029410998
:103770003B401941093C40110A3D0440110A3707FA
:10378000400A3D08401139410939403941093A4060
:103790002941093B401941093D800A3C0880210A22
:1037A000370F400A3D10401139410939403941096C
:1037B0003A402941093B401941093C40110A3D105A
:1037C00040110A371F400A3D204011394109394054
:1037D0003941093A402941093B401941093C40110E
:1037E0000A3D2040110A373F400A3D40401139410F
:1037F0000939403941093A402941093B40194109F9
:103800003C40110A3D404079380928400A3D0240B9
:1038100011494109384049410939403941093A4083
:103820002941093B401941093C40110A3702400A2D
:103830003D04401139410939403941093A40294193
:10384000093B401941093C40110A3D0440110A3727
:1038500006400A3D08401139410939403941093AC9
:10386000402941093B401941093C40110A3D0840AB
:10387000110A370E400A3D104011394109394039CB
:1038800041093A402941093B401941093C40110A8C
:103890003D1040110A371E400A3D204011394109B0
:1038A00039403941093A402941093B401941093C15
:1038B00040110A3D2040110A2F3E400A3D044011AC
:1038C000494109384049410939403941093A4029BB
:1038D00041093B401941093C40110A3704400A3D67
:1038E00008401139410939403941093A4029410913
:1038F0003B401941093C40110A3D0840110A370C70
:10390000400A3D10401139410939403941093A40D6
:103910002941093B401941093C40110A3D01401130
:103920000A2F1C400A3D08401149410938404941CD
:103930000939403941093A402941093B40194109B7
:103940003C40110A3D08405A10085A38085A7C0871
:10395000DAFE080A156C405A20085A70085AF8080E
:10396000DAFC080A15D8405A40085AE008DAF0484C
:1039700069080A15B0405A80080A15C04869080A43
:10398000156040091E48690869180916400916485B
:1039900069086918091E40E948F93801390FFD6CBA
:1039A00092824428103809B93809FD4809FD488138
:1039B000023F01023F03023F07023F0F023F1F0287
:1039C0003F3F023F7F0237FE72800A35FC386908AC
:1039D0000A35F83869080A35F03869080A35E038D8
:1039E00069080A35C038094608816988092E388176
:1039F0000A35E038810A35F038810A35F838810A0D
:103A000035FC3881023FFE023F7F723F023701DA08
:103A10001F40092E480A150F400926480A1D074075
:103A2000091E480A25034009164809263809854811
:103A30000A1E0240091D480A2606400915480A2E9A
:103A40000E40D9480A361E40710A3D3E40EA7ED8F3
:103A50000127EA4040092D3869080A357C38690891
:103A60000A35783869080A357038690802176069BC
:103A70001809264801106998092E38810A357838C6
:103A8000810A357C38810A357E38E940023702DA0E
:103A90003E40092E480A151E400926480A1D0E40C0
:103AA000091E480A250640091648091D300A260441
:103AB000880915400A260C400915480A2E1C40D9D1
:103AC000480A353C407220092E4069387940E9D8CF
:103AD000092538F940011F0A1530400227386928A6
:103AE000E9406958012069A80916C80926400A2D2D
:103AF00024380916400A3504406938E9080120CA0B
:103B00001C300A2E0840CA0C300A2E184059280AC8
:103B1000361040716938097740610A3D08405A18EB
:103B200008092E40FA1040092D7F69400A7D104097
:103B30000932FD2938BA08400A2F0C40C9080A3654
:103B40001C4062100A353C407220092E400B342084
:103B500008406930E9080926400A15304002273834
:103B60006928E9406958012069A80916C809264052
:103B70000A2D24380916400A3504406938E908013D
:103B8000200A1C1C400220020A1C0C4002200609CC
:103B900016B8590802280E09154002301ED94002F5
:103BA000383E594002377E7240092E406938690814
:103BB0000A357C3869080A35783869080A3570385A
:103BC0006908021760691809264801106998092ECA
:103BD00038810A357838810A357C38810A357E3853
:103BE000E940023702DA3E40092E480A151E400914
:103BF00026480A1D0E40091E480A25064009164897
:103C00000926385908021801092540022003091D18
:103C10004002280709154002300FD94002381F59C9
:103C200040023F3F023F7F0237FE72800A35FC3878
:103C300069080A35F83869080A35F03869080A351C
:103C4000E03869080A35C038094608816988092EB4
:103C500038810A35E038810A35F038810A35F8387C
:103C6000810A35FC3881023FFE023F7F723F0237F6
:103C700001DA1F40092E480A150F400926480A1D7F
:103C80000740091E480A2503400916480926380935
:103C900096480118093E400926480128093E400976
:103CA00016480138097E40023F03023F07023F0FDA
:103CB000023F1F023F3F023F7F0237FF0A3580402D
:103CC0006938092E40E938092640091638091E408E
:103CD000091E38091640092638E940092E38E940FE
:103CE0000A3DC0400A3DE0400A3DF0400A3DF84030
:103CF0000A3DFC400A3DFE406908093E400A4581F4
:103D000040092648091E40091E4809264009164850
:103D1000092E40E94809364069080977400A3D0202
:103D2000400A3D06400A3D0E400A3D1E400A3D3E07
:103D3000400A357E400A3540406938092E40E9384E
:103D4000092640091638091E40091E38091E400A76
:103D50003D60400A3D70400A3D78400A3D7C405934
:103D600018093F400A454240091648092E40E948D3
:103D700009364069080977400A3D04400A3D0C4075
:103D80000A3D1C400A353C400A3520406938092E5E
:103D900040E938092E400A3D30400A3D3840592854
:103DA000093F400A45244069080977400A3D084018
:103DB0000A3518400A3D104059380980400A3D082C
:103DC0004029090932400A3D104049380989400A12
:103DD0003D04400A3D0C400A3D1C40190309334094
:103DE0000A3520403938093140B9380931400A3D97
:103DF00030400A3D384029280942400A45244039CC
:103E000008098A400A3D02400A3D06400A3D0E402C
:103E10000A3D1E400A3D3E400A357E400A3540407C
:103E200019380933402938093240A938092A4099FC
:103E3000280933400A3D60400A3D70400A3D784001
:103E40000A3D7C400A457E400A454240A948093A5D
:103E50004029080942401908098C400A3D01400ADE
:103E60003D03400A3D07400A3D0F400A3D1F400AFE
:103E70003D3F400A3D7F400A35FF400A3580400AF9
:103E80003580400A35804019380933409938092B6C
:103E9000408928092C4079180935400A3DC0400A5C
:103EA0003DE0400A3DF0400A3DF8400A3DFC400A32
:103EB0003DFE400A45FF400A45814019080943403C
:103EC0009948093B4089D8093C400A4581400A4647
:103ED000814001385A010101385A030101385A075B
:103EE0000101385A0F0101385A1F0101385A3F01A8
:103EF00001385A7F0101385AFF0109FD3809B738E6
:103F000001405AFE0101385AFC0101385AF80101FA
:103F1000385AF00101385AE00101385AC00101381D
:103F20005A8001093638092E40E938092640091619
:103F300038091E40091E38091640092638E940098B
:103F40002E380946010A3D40010A3D20010A3D1074
:103F5000010A3D08010A3D04010A3D02010A3D0132
:103F6000010A35800181093638092E4001180936C9
:103F700038091E400128093638E94001385AC00185
:103F800001385AE00101385AF00101385AF80101AC
:103F9000385AFC0101385AFE0101385AFF0109392B
:103FA000404BE7E7400B331818401AC3012940552E
:103FB0003C24243C092B483BFF810112FF1B7E421D
:103FC00001327E093548093D8889481CFFE7E7052D
:103FD00009364099483901014009414839C899D802
:103FE000093340212D3C24243C481AC301092B48A5
:103FF000B940111B7E4201127E3BFF810109294815
:104000001A3C01093A40713A7E01093840715AFF61
:10401000014A7F0101393A3F01013A2A1F01013B60
:104020001A0F01013C043D070707033E0303023F4B
:1040300001698009368854070507BC05050510018C
:1040400028450F09090F1A0901A908691801203626
:104050001F1111111F19070B1111110869200118E7
:104060001B3F2101223F29070B1821210869280144
:10407000102B7F4101127F39070B1F414108693026
:10408000813BFF810159070928016938912BFE8284
:104090000112FE39070B1F828208693001111BFCD7
:1040A000840122FC29070B18848408692801193629
:1040B000F8888888F819070B118888086920012179
:1040C00045F09090F01A9001A9086918012954E070
:1040D000A0E0BCA0A0A0100131CBC0C00801397382
:1040E00080FF091B0812025A01105A7F080A233662
:1040F0003879080A3D0240110A3703400A3D04405E
:104100001139410939403941093A402941093B40B7
:104110001941093C40110A3D0440110A3707400A81
:104120003D08401139410939403941093A40294196
:10413000093B401941093D800A3C0880210A370F9C
:10414000400A3D10401139410939403941093A408E
:104150002941093B401941093C40110A3D104011D9
:104160000A371F400A3D2040113941093940394181
:10417000093A402941093B401941093C40110A3D97
:104180002040110A373F400A3D404011394109396A
:10419000403941093A402941093B401941093C4015
:1041A000110A3D404079380928400A3D0240114932
:1041B0004109384049410939403941093A402941CA
:1041C000093B401941093C40110A3702400A3D04AD
:1041D000401139410939403941093A402941093BE7
:1041E000401941093C40110A3D0440110A3706407C
:1041F0000A3D08401139410939403941093A4029FD
:1042000041093B401941093C40110A3D0840110A4F
:10421000370E400A3D1040113941093940394109F2
:104220003A402941093B401941093C40110A3D10DF
:1042300040110A371E400A3D2040113941093940DA
:104240003941093A402941093B401941093C401193
:104250000A3D2040110A2F3E400A3D0440114941C9
:1042600009384049410939403941093A4029410951
:104270003B401941093C40110A3704400A3D0840BF
:104280001139410939403941093A402941093B4036
:104290001941093C40110A3D0840110A370C400AF7
:1042A0003D10401139410939403941093A4029410D
:1042B000093B401941093C40110A3D0140110A2FB8
:1042C0001C400A3D0840114941093840494109391B
:1042D000403941093A402941093B401941093C40D4
:1042E000110A3D08405A10085A38085A7C08DAFE6C
:1042F000080A156C405A20085A70085AF808DAFC67
:10430000080A15D8405A40085AE008DAF048690807
:104310000A15B0405A80080A15C04869080A156095
:1043200040091E48690869180916400916486908B5
:104330006918091E40E948F9388168090102030437
:1043400005060708097908AC7A030A241923020034
:044350000900000060
:040000050800018965
:00000001FF
